:020000040800F2
:100000000004002047010008CB020008C7020008D6
:10001000C902000899010008150700080000000047
:10002000000000000000000000000000C9030008FC
:100030009B0100080000000065030008610400083F
:1000400067010008670100086701000867010008F0
:1000500067010008670100086701000867010008E0
:1000600067010008670100086701000867010008D0
:1000700067010008670100086701000867010008C0
:1000800067010008670100086701000867010008B0
:1000900067010008670100086701000867010008A0
:1000A0006701000867010008670100086701000890
:1000B000A50400086701000867010008670100083F
:1000C0006701000867010008670100086701000870
:1000D0006701000867010008670100086701000860
:1000E0006701000867010008670100086701000850
:1000F0006701000867010008670100086701000840
:10010000670100086701000867010008670100082F
:10011000670100086701000867010008670100081F
:10012000670100086701000867010008670100080F
:10013000DFF80CD000F01EF8004800473507000833
:1001400010020020704708488047084981F308885A
:1001500007480047FEE7FEE7FEE7FEE7FEE7FEE7AB
:10016000FEE7FEE7FEE7FEE745010008100200207B
:1001700031010008064C074D06E0E06840F001033D
:1001800094E8070098471034AC42F6D3FFF7D4FF49
:100190004807000868070008FEE77047F8B5012126
:1001A0007D2000F0F9F84FF44070ADF80000032412
:1001B000184E8DF8024010258DF8035069463046E0
:1001C00000F02EF8ADF80040134F8DF802408DF886
:1001D00003506946384600F023F82020ADF80000AF
:1001E0008DF802408DF8035069460C4800F018F86D
:1001F0002901304600F065F86901304600F061F8E9
:100200000121384600F05DF80221384600F059F827
:10021000F8BD0000000C0140001801400010014032
:10022000F0B5CB780022DC0603F00F0301D58C7803
:1002300023430C884FF00F0C14F0FF0F4FF0010E0A
:100240001AD006680D880EFA02F42540A5420FD197
:1002500095000CFA05F726EA070703FA05F6CD78AC
:100260003E43282D01D1446102E0482D00D10461B4
:10027000521C082AE6D306600A88FF2A1ED946685F
:100280005FF0000202F108050EFA05F40D88254022
:10029000A5420FD195000CFA05F726EA070703FAE5
:1002A00005F6CD783E43282D00D14461CD78482D08
:1002B00000D10461521C082AE4D34660F0BD4161BC
:1002C000704701617047FEE7FEE7704708B54FF4DD
:1002D000E06000F03DF81C208DF8000000208DF853
:1002E00001008DF8020001208DF80300684600F03F
:1002F00001F808BDF0B50F23C47801784FF0E02273
:100300000127E4B1D2F80C4D867804F4E064C4F51A
:10031000E064240AC4F10405E34044781E40AC4084
:1003200026433301114481F800340078410900F07C
:100330001F0002EB81018740C1F80071F0BD01F0A0
:100340001F008740480902EB8000C0F88071F0BDB3
:100350000249084302490860704700000000FA059E
:100360000CED00E070470000044A0029D16901D07B
:10037000014300E08143D16170470000001002405A
:10038000044A0029116901D0014300E08143116151
:100390007047000000100240044A0029916901D012
:1003A000014300E08143916170470000001002406A
:1003B000044A0029D16801D0014300E08143D160A3
:1003C00070470000001002407047000022490020E2
:1003D0000A6842F480320A604FF4A0630A68401C45
:1003E00012F4003F01D19842F8D10868800331D55A
:1003F0001A48026842F010020260026822F003020A
:100400000260026842F00202026048684860486880
:100410004860486840F480604860486820F47C1078
:100420004860486840F4E8104860086840F0807010
:10043000086008688001FCD5486820F00300486027
:10044000486840F0020048604868C0F38100022814
:10045000FAD17047FEE70000001002400020024081
:10046000704700000C48016841F0010101604168DB
:100470000A4A114041600168094A1140016001685F
:1004800021F480210160416821F4FE0141600021D6
:100490008160FFF79BBF0000001002400000FFF8E2
:1004A000FFFFF6FE2DE9F04101218C07204600F008
:1004B000D5F800282CD00121204600F066F82D4EFA
:1004C000A1152D4D2D4CDFF8B88030684F0008B3D2
:1004D00001282BD0022839D0032812D12846FFF753
:1004E000F0FE39462846FFF7ECFE01212046FFF7D3
:1004F000E8FE02212046FFF7E2FE20214046FFF7FA
:10050000DEFE3068401C3060042801D300203060DB
:10051000BDE8F0812846FFF7D2FE39462846FFF7AE
:10052000D0FE01212046FFF7CCFE1AE02846FFF757
:10053000C8FE39462846FFF7C2FE01212046FFF7D4
:10054000C0FE02212046FFF7BCFED6E72846FFF793
:10055000B8FE39462846FFF7B4FE01212046FFF7D2
:10056000AEFE02212046FFF7ACFE20214046FFF7F9
:10057000A8FEC6E700000020000C01400018014062
:1005800000100140C94301827047C943018270478E
:100590000029018802D041F0010102E040F2FE3260
:1005A00011400180704700002A4A10B5811A1315C6
:1005B000D41490423BD010DCB0F1804F22D02649B9
:1005C000401826D098422BD0A04241D101210820CA
:1005D000FFF7D6FE0021082036E099422ED0B1F573
:1005E0008E3F0DD0B1F5923F32D101214C03204610
:1005F000FFF7DEFE2046BDE810400021FFF7D8BE21
:100600000121F4E701210846FFF7BAFE002101208D
:100610001AE001210220FFF7B3FE0021022013E0BF
:1006200001210420FFF7ACFE002104200CE0012191
:100630001020FFF7A5FE0021102005E00121202059
:10064000FFF79EFE00212020BDE81040FFF798BE76
:1006500010BD00000010004000FCFFBF0246138ADE
:10066000002092890B4202EA010202D0002A00D047
:1006700001207047002A828901D00A4300E08A43A2
:100680008281704710B5028802F08F020280CA880A
:100690004B8804881A4322430280074B8A88984279
:1006A00082850A88028502D0044A904201D1097AE3
:1006B00001860121818210BD002C014000340140DF
:1006C00010B501210846FFF74FFE4FF08044204649
:1006D000FFF76AFF0E484FF4FA61818048F69F41A8
:1006E00001800021C180418001462046FFF7CAFFFA
:1006F00001212046FFF746FF012211462046FFF761
:10070000B9FF2046BDE810400121FFF741BF0000BE
:1007100004000020FEE702E008C8121F08C1002AFA
:10072000FAD170477047002001E001C1121F002A72
:10073000FBD1704710B5FFF795FEFFF72FFDFFF7D0
:10074000C5FDFFF7BDFFFEE76807000800000020B9
:1007500004000000160700086C07000804000020D1
:0C0760000C02000026070008000000004A
:0400000508000131BD
:00000001FF
